:100000000C945A000C946F000C946F000C946F00C9
:100010000C946F000C946F000C946F000C946F00A4
:100020000C946F000C946F000C946F000C946F0094
:100030000C946F000C946F000C946F000C946F0084
:100040000C946F000C946F000C946F000C946F0074
:100050000C946F000C946F000C946F000C946F0064
:100060000C946F000C946F000C946F000C946F0054
:100070000C946F000C946F000C946F000C946F0044
:100080000C946F000C946F000C946F000C946F0034
:100090000C946F000C946F000C946F000C946F0024
:1000A0000C946F000C946F000C946F000C946F0014
:1000B0000C946F0011241FBECFEFD8E0DEBFCDBF80
:1000C00011E0A0E0B1E0EAE2F5E002C005900D9297
:1000D000A032B107D9F70E942B010C9493020C9423
:1000E000000084B5826084BD84B5867F84BD8FEFB7
:1000F00087BD18BC85B5846085BD08951092C50084
:1001000087E68093C400E2ECF0E080818660808323
:100110008081877F8083E1ECF0E08081886180834B
:1001200008958AB1806F8AB93D9A84B1807F84B97D
:1001300085B18F6085B98BB1806F8BB908956F924F
:100140007F928F929F92AF92BF92CF92DF92EF9267
:10015000FF920F931F93CF93DF93CDB7DEB7A09796
:100160000FB6F894DEBF0FBECDBF80E2E0E0F1E055
:10017000DE01119601900D928A95E1F7CE0101966C
:100180004C016894AA24A2F8B12C66246394712CC3
:100190008BB163010A2C02C0CC0CDD1C0A94E2F77F
:1001A0009C2D909589238BB9740100E010E083B1F8
:1001B00090E0002E02C0959587950A94E2F780FDA5
:1001C0001FC020E030E04FE753E4F7016081718108
:1001D000828193810E9426022FE632E143E850E4B7
:1001E0000E9434010E94A60167BD87B5869588BD2F
:1001F000459AAA9BFECFAA9A4598A99BFECFA99A99
:100200000F5F1F4FF4E0EF0EF11C0430110579F67B
:100210008BB1C82ACBB88FEFA81AB80A90E1890E23
:10022000911CE8E0AE16B10409F0B2CFA0960FB66B
:10023000F894DEBF0FBECDBFDF91CF911F910F911C
:10024000FF90EF90DF90CF90BF90AF909F908F90F6
:100250007F906F9008950E947E000E9491000E94FE
:1002600071000E949F00FDCF0E9448010C94EC0198
:100270000E94E50158F00E94DE0140F029F45F3F42
:1002800029F00C94D50151110C9420020C94DB013F
:100290000E94FD0168F39923B1F3552391F3951B57
:1002A000550BBB27AA2762177307840738F09F5F97
:1002B0005F4F220F331F441FAA1FA9F335D00E2E04
:1002C0003AF0E0E832D091505040E695001CCAF771
:1002D0002BD0FE2F29D0660F771F881FBB1F261734
:1002E00037074807AB07B0E809F0BB0B802DBF010B
:1002F000FF2793585F4F3AF09E3F510578F00C94DA
:10030000D5010C9420025F3FE4F3983ED4F3869528
:1003100077956795B795F7959F5FC9F7880F911DFA
:100320009695879597F90895E1E0660F771F881FE6
:10033000BB1F621773078407BA0720F0621B730B99
:10034000840BBA0BEE1F88F7E09508950E94050212
:1003500088F09F5798F0B92F9927B751B0F0E1F086
:10036000660F771F881F991F1AF0BA95C9F714C036
:10037000B13091F00E941F02B1E008950C941F0269
:10038000672F782F8827B85F39F0B93FCCF386956F
:1003900077956795B395D9F73EF4909580957095CC
:1003A00061957F4F8F4F9F4F089597F99F6780E822
:1003B00070E060E008959FEF80EC089500240A94B7
:1003C0001616170618060906089500240A94121630
:1003D0001306140605060895092E0394000C11F463
:1003E000882352F0BB0F40F4BF2B11F460FF04C010
:1003F0006F5F7F4F8F4F9F4F089557FD9058440F69
:10040000551F59F05F3F71F04795880F97FB991F73
:1004100061F09F3F79F08795089512161306140630
:10042000551FF2CF4695F1DF08C0161617061806BD
:10043000991FF1CF86957105610508940895E89498
:10044000BB2766277727CB0197F908950E943902C9
:100450000C94EC010E94DE0138F00E94E50120F0CE
:10046000952311F00C94D5010C94DB0111240C940C
:1004700020020E94FD0170F3959FC1F3950F50E09B
:10048000551F629FF001729FBB27F00DB11D639F46
:10049000AA27F00DB11DAA1F649F6627B00DA11DEC
:1004A000661F829F2227B00DA11D621F739FB00D92
:1004B000A11D621F839FA00D611D221F749F332702
:1004C000A00D611D231F849F600D211D822F762F9B
:1004D0006A2F11249F5750409AF0F1F088234AF078
:1004E000EE0FFF1FBB1F661F771F881F91505040E4
:1004F000A9F79E3F510580F00C94D5010C94200281
:100500005F3FE4F3983ED4F3869577956795B7956A
:10051000F795E7959F5FC1F7FE2B880F911D969584
:0A052000879597F90895F894FFCF2E
:10052A00A69BF43FE7FBD93F0E2DC23FC74BB73F0F
:10053A00F853A33F7368913F0000000000000000D9
:00000001FF
